{
  "_format": "hh-sol-artifact-1",
  "contractName": "Escrow",
  "sourceName": "contracts/Escrow.sol",
  "abi": [
    {
      "inputs": [
        {
          "internalType": "address",
          "name": "_freelancer",
          "type": "address"
        }
      ],
      "stateMutability": "payable",
      "type": "constructor"
    },
    {
      "inputs": [],
      "name": "amount",
      "outputs": [
        {
          "internalType": "uint256",
          "name": "",
          "type": "uint256"
        }
      ],
      "stateMutability": "view",
      "type": "function"
    },
    {
      "inputs": [],
      "name": "client",
      "outputs": [
        {
          "internalType": "address",
          "name": "",
          "type": "address"
        }
      ],
      "stateMutability": "view",
      "type": "function"
    },
    {
      "inputs": [],
      "name": "deposit",
      "outputs": [],
      "stateMutability": "payable",
      "type": "function"
    },
    {
      "inputs": [],
      "name": "freelancer",
      "outputs": [
        {
          "internalType": "address",
          "name": "",
          "type": "address"
        }
      ],
      "stateMutability": "view",
      "type": "function"
    },
    {
      "inputs": [],
      "name": "isFunded",
      "outputs": [
        {
          "internalType": "bool",
          "name": "",
          "type": "bool"
        }
      ],
      "stateMutability": "view",
      "type": "function"
    },
    {
      "inputs": [],
      "name": "refund",
      "outputs": [],
      "stateMutability": "nonpayable",
      "type": "function"
    },
    {
      "inputs": [],
      "name": "release",
      "outputs": [],
      "stateMutability": "nonpayable",
      "type": "function"
    }
  ],
  "bytecode": "0x6080604052604051610a8e380380610a8e8339818101604052810190610025919061010f565b336000806101000a81548173ffffffffffffffffffffffffffffffffffffffff021916908373ffffffffffffffffffffffffffffffffffffffff16021790555080600160006101000a81548173ffffffffffffffffffffffffffffffffffffffff021916908373ffffffffffffffffffffffffffffffffffffffff1602179055505061013c565b600080fd5b600073ffffffffffffffffffffffffffffffffffffffff82169050919050565b60006100dc826100b1565b9050919050565b6100ec816100d1565b81146100f757600080fd5b50565b600081519050610109816100e3565b92915050565b600060208284031215610125576101246100ac565b5b6000610133848285016100fa565b91505092915050565b6109438061014b6000396000f3fe6080604052600436106100705760003560e01c806386d1a69f1161004e57806386d1a69f146100e2578063a37dda2c146100f9578063aa8c217c14610124578063d0e30db01461014f57610070565b8063109e94cf14610075578063590e1ae3146100a05780637c654303146100b7575b600080fd5b34801561008157600080fd5b5061008a610159565b60405161009791906105c9565b60405180910390f35b3480156100ac57600080fd5b506100b561017d565b005b3480156100c357600080fd5b506100cc6102e2565b6040516100d991906105ff565b60405180910390f35b3480156100ee57600080fd5b506100f76102f5565b005b34801561010557600080fd5b5061010e61045a565b60405161011b91906105c9565b60405180910390f35b34801561013057600080fd5b50610139610480565b6040516101469190610633565b60405180910390f35b610157610486565b005b60008054906101000a900473ffffffffffffffffffffffffffffffffffffffff1681565b600160009054906101000a900473ffffffffffffffffffffffffffffffffffffffff1673ffffffffffffffffffffffffffffffffffffffff163373ffffffffffffffffffffffffffffffffffffffff161461020d576040517f08c379a0000000000000000000000000000000000000000000000000000000008152600401610204906106d1565b60405180910390fd5b600360009054906101000a900460ff1661025c576040517f08c379a00000000000000000000000000000000000000000000000000000000081526004016102539061073d565b60405180910390fd5b60008054906101000a900473ffffffffffffffffffffffffffffffffffffffff1673ffffffffffffffffffffffffffffffffffffffff166108fc6002549081150290604051600060405180830381858888f193505050501580156102c4573d6000803e3d6000fd5b506000600360006101000a81548160ff021916908315150217905550565b600360009054906101000a900460ff1681565b60008054906101000a900473ffffffffffffffffffffffffffffffffffffffff1673ffffffffffffffffffffffffffffffffffffffff163373ffffffffffffffffffffffffffffffffffffffff1614610383576040517f08c379a000000000000000000000000000000000000000000000000000000000815260040161037a906107a9565b60405180910390fd5b600360009054906101000a900460ff166103d2576040517f08c379a00000000000000000000000000000000000000000000000000000000081526004016103c990610815565b60405180910390fd5b600160009054906101000a900473ffffffffffffffffffffffffffffffffffffffff1673ffffffffffffffffffffffffffffffffffffffff166108fc6002549081150290604051600060405180830381858888f1935050505015801561043c573d6000803e3d6000fd5b506000600360006101000a81548160ff021916908315150217905550565b600160009054906101000a900473ffffffffffffffffffffffffffffffffffffffff1681565b60025481565b60008054906101000a900473ffffffffffffffffffffffffffffffffffffffff1673ffffffffffffffffffffffffffffffffffffffff163373ffffffffffffffffffffffffffffffffffffffff1614610514576040517f08c379a000000000000000000000000000000000000000000000000000000000815260040161050b90610881565b60405180910390fd5b600360009054906101000a900460ff1615610564576040517f08c379a000000000000000000000000000000000000000000000000000000000815260040161055b906108ed565b60405180910390fd5b346002819055506001600360006101000a81548160ff021916908315150217905550565b600073ffffffffffffffffffffffffffffffffffffffff82169050919050565b60006105b382610588565b9050919050565b6105c3816105a8565b82525050565b60006020820190506105de60008301846105ba565b92915050565b60008115159050919050565b6105f9816105e4565b82525050565b600060208201905061061460008301846105f0565b92915050565b6000819050919050565b61062d8161061a565b82525050565b60006020820190506106486000830184610624565b92915050565b600082825260208201905092915050565b7f4f6e6c7920667265656c616e6365722063616e2072657175657374207265667560008201527f6e64000000000000000000000000000000000000000000000000000000000000602082015250565b60006106bb60228361064e565b91506106c68261065f565b604082019050919050565b600060208201905081810360008301526106ea816106ae565b9050919050565b7f4e6f2066756e647320746f20726566756e640000000000000000000000000000600082015250565b600061072760128361064e565b9150610732826106f1565b602082019050919050565b600060208201905081810360008301526107568161071a565b9050919050565b7f4f6e6c7920636c69656e742063616e2072656c656173652066756e6473000000600082015250565b6000610793601d8361064e565b915061079e8261075d565b602082019050919050565b600060208201905081810360008301526107c281610786565b9050919050565b7f4e6f2066756e647320746f2072656c6561736500000000000000000000000000600082015250565b60006107ff60138361064e565b915061080a826107c9565b602082019050919050565b6000602082019050818103600083015261082e816107f2565b9050919050565b7f4f6e6c7920636c69656e742063616e206465706f736974000000000000000000600082015250565b600061086b60178361064e565b915061087682610835565b602082019050919050565b6000602082019050818103600083015261089a8161085e565b9050919050565b7f416c72656164792066756e646564000000000000000000000000000000000000600082015250565b60006108d7600e8361064e565b91506108e2826108a1565b602082019050919050565b60006020820190508181036000830152610906816108ca565b905091905056fea26469706673582212208fc8d1471cbf944fff88a94c65e5390a009deb05da23c2448d223062e027c9e464736f6c634300081c0033",
  "linkReferences": {},
  "deployedLinkReferences": {}
}